{
  "_format": "hh-sol-artifact-1",
  "contractName": "Upload",
  "sourceName": "contracts/Upload.sol",
  "abi": [
    {
      "inputs": [
        {
          "internalType": "address",
          "name": "_user",
          "type": "address"
        },
        {
          "internalType": "string",
          "name": "_name",
          "type": "string"
        },
        {
          "internalType": "string",
          "name": "_description",
          "type": "string"
        },
        {
          "internalType": "string",
          "name": "_URI",
          "type": "string"
        }
      ],
      "name": "add",
      "outputs": [],
      "stateMutability": "nonpayable",
      "type": "function"
    },
    {
      "inputs": [
        {
          "internalType": "address",
          "name": "_user",
          "type": "address"
        }
      ],
      "name": "allow",
      "outputs": [],
      "stateMutability": "nonpayable",
      "type": "function"
    },
    {
      "inputs": [
        {
          "internalType": "address",
          "name": "_user",
          "type": "address"
        }
      ],
      "name": "disAllow",
      "outputs": [],
      "stateMutability": "nonpayable",
      "type": "function"
    },
    {
      "inputs": [
        {
          "internalType": "address",
          "name": "_user",
          "type": "address"
        }
      ],
      "name": "display",
      "outputs": [
        {
          "components": [
            {
              "internalType": "string",
              "name": "name",
              "type": "string"
            },
            {
              "internalType": "string",
              "name": "description",
              "type": "string"
            },
            {
              "internalType": "string",
              "name": "uri",
              "type": "string"
            }
          ],
          "internalType": "struct Upload.Item[]",
          "name": "",
          "type": "tuple[]"
        }
      ],
      "stateMutability": "view",
      "type": "function"
    },
    {
      "inputs": [],
      "name": "shareAccess",
      "outputs": [
        {
          "components": [
            {
              "internalType": "address",
              "name": "user",
              "type": "address"
            },
            {
              "internalType": "bool",
              "name": "access",
              "type": "bool"
            }
          ],
          "internalType": "struct Upload.Access[]",
          "name": "",
          "type": "tuple[]"
        }
      ],
      "stateMutability": "view",
      "type": "function"
    }
  ],
  "bytecode": "0x6080604052348015600f57600080fd5b506116868061001f6000396000f3fe608060405234801561001057600080fd5b50600436106100575760003560e01c80639527b19b1461005c578063bc8bef8114610078578063cf8aacdd14610096578063eb39113f146100b2578063ff9913e8146100e2575b600080fd5b61007660048036038101906100719190610ee4565b6100fe565b005b61008061020f565b60405161008d91906110ac565b60405180910390f35b6100b060048036038101906100ab91906110ce565b610318565b005b6100cc60048036038101906100c791906110ce565b610534565b6040516100d9919061129a565b60405180910390f35b6100fc60048036038101906100f791906110ce565b610886565b005b6000808673ffffffffffffffffffffffffffffffffffffffff1673ffffffffffffffffffffffffffffffffffffffff168152602001908152602001600020604051806060016040528086815260200185815260200184848080601f016020809104026020016040519081016040528093929190818152602001838380828437600081840152601f19601f82011690508083019250505050505050815250908060018154018082558091505060019003906000526020600020906003020160009091909190915060008201518160000190816101d991906114d2565b5060208201518160010190816101ef91906114d2565b50604082015181600201908161020591906114d2565b5050505050505050565b6060600260003373ffffffffffffffffffffffffffffffffffffffff1673ffffffffffffffffffffffffffffffffffffffff168152602001908152602001600020805480602002602001604051908101604052809291908181526020016000905b8282101561030f578382906000526020600020016040518060400160405290816000820160009054906101000a900473ffffffffffffffffffffffffffffffffffffffff1673ffffffffffffffffffffffffffffffffffffffff1673ffffffffffffffffffffffffffffffffffffffff1681526020016000820160149054906101000a900460ff16151515158152505081526020019060010190610270565b50505050905090565b6000600160003373ffffffffffffffffffffffffffffffffffffffff1673ffffffffffffffffffffffffffffffffffffffff16815260200190815260200160002060008373ffffffffffffffffffffffffffffffffffffffff1673ffffffffffffffffffffffffffffffffffffffff16815260200190815260200160002060006101000a81548160ff02191690831515021790555060005b600260003373ffffffffffffffffffffffffffffffffffffffff1673ffffffffffffffffffffffffffffffffffffffff16815260200190815260200160002080549050811015610530578173ffffffffffffffffffffffffffffffffffffffff16600260003373ffffffffffffffffffffffffffffffffffffffff1673ffffffffffffffffffffffffffffffffffffffff1681526020019081526020016000208281548110610462576104616115a4565b5b9060005260206000200160000160009054906101000a900473ffffffffffffffffffffffffffffffffffffffff1673ffffffffffffffffffffffffffffffffffffffff1603610523576000600260003373ffffffffffffffffffffffffffffffffffffffff1673ffffffffffffffffffffffffffffffffffffffff16815260200190815260200160002082815481106104fe576104fd6115a4565b5b9060005260206000200160000160146101000a81548160ff0219169083151502179055505b80806001019150506103b0565b5050565b60603373ffffffffffffffffffffffffffffffffffffffff168273ffffffffffffffffffffffffffffffffffffffff1614806105f65750600160008373ffffffffffffffffffffffffffffffffffffffff1673ffffffffffffffffffffffffffffffffffffffff16815260200190815260200160002060003373ffffffffffffffffffffffffffffffffffffffff1673ffffffffffffffffffffffffffffffffffffffff16815260200190815260200160002060009054906101000a900460ff165b610635576040517f08c379a000000000000000000000000000000000000000000000000000000000815260040161062c90611630565b60405180910390fd5b6000808373ffffffffffffffffffffffffffffffffffffffff1673ffffffffffffffffffffffffffffffffffffffff168152602001908152602001600020805480602002602001604051908101604052809291908181526020016000905b8282101561087b57838290600052602060002090600302016040518060600160405290816000820180546106c6906112eb565b80601f01602080910402602001604051908101604052809291908181526020018280546106f2906112eb565b801561073f5780601f106107145761010080835404028352916020019161073f565b820191906000526020600020905b81548152906001019060200180831161072257829003601f168201915b50505050508152602001600182018054610758906112eb565b80601f0160208091040260200160405190810160405280929190818152602001828054610784906112eb565b80156107d15780601f106107a6576101008083540402835291602001916107d1565b820191906000526020600020905b8154815290600101906020018083116107b457829003601f168201915b505050505081526020016002820180546107ea906112eb565b80601f0160208091040260200160405190810160405280929190818152602001828054610816906112eb565b80156108635780601f1061083857610100808354040283529160200191610863565b820191906000526020600020905b81548152906001019060200180831161084657829003601f168201915b50505050508152505081526020019060010190610693565b505050509050919050565b60018060003373ffffffffffffffffffffffffffffffffffffffff1673ffffffffffffffffffffffffffffffffffffffff16815260200190815260200160002060008373ffffffffffffffffffffffffffffffffffffffff1673ffffffffffffffffffffffffffffffffffffffff16815260200190815260200160002060006101000a81548160ff02191690831515021790555060011515600360003373ffffffffffffffffffffffffffffffffffffffff1673ffffffffffffffffffffffffffffffffffffffff16815260200190815260200160002060008373ffffffffffffffffffffffffffffffffffffffff1673ffffffffffffffffffffffffffffffffffffffff16815260200190815260200160002060009054906101000a900460ff16151503610b385760005b600260003373ffffffffffffffffffffffffffffffffffffffff1673ffffffffffffffffffffffffffffffffffffffff16815260200190815260200160002080549050811015610b32578173ffffffffffffffffffffffffffffffffffffffff16600260003373ffffffffffffffffffffffffffffffffffffffff1673ffffffffffffffffffffffffffffffffffffffff1681526020019081526020016000208281548110610a6457610a636115a4565b5b9060005260206000200160000160009054906101000a900473ffffffffffffffffffffffffffffffffffffffff1673ffffffffffffffffffffffffffffffffffffffff1603610b25576001600260003373ffffffffffffffffffffffffffffffffffffffff1673ffffffffffffffffffffffffffffffffffffffff1681526020019081526020016000208281548110610b0057610aff6115a4565b5b9060005260206000200160000160146101000a81548160ff0219169083151502179055505b80806001019150506109b2565b50610cc9565b600260003373ffffffffffffffffffffffffffffffffffffffff1673ffffffffffffffffffffffffffffffffffffffff16815260200190815260200160002060405180604001604052808373ffffffffffffffffffffffffffffffffffffffff168152602001600115158152509080600181540180825580915050600190039060005260206000200160009091909190915060008201518160000160006101000a81548173ffffffffffffffffffffffffffffffffffffffff021916908373ffffffffffffffffffffffffffffffffffffffff16021790555060208201518160000160146101000a81548160ff02191690831515021790555050506001600360003373ffffffffffffffffffffffffffffffffffffffff1673ffffffffffffffffffffffffffffffffffffffff16815260200190815260200160002060008373ffffffffffffffffffffffffffffffffffffffff1673ffffffffffffffffffffffffffffffffffffffff16815260200190815260200160002060006101000a81548160ff0219169083151502179055505b50565b6000604051905090565b600080fd5b600080fd5b600073ffffffffffffffffffffffffffffffffffffffff82169050919050565b6000610d0b82610ce0565b9050919050565b610d1b81610d00565b8114610d2657600080fd5b50565b600081359050610d3881610d12565b92915050565b600080fd5b600080fd5b6000601f19601f8301169050919050565b7f4e487b7100000000000000000000000000000000000000000000000000000000600052604160045260246000fd5b610d9182610d48565b810181811067ffffffffffffffff82111715610db057610daf610d59565b5b80604052505050565b6000610dc3610ccc565b9050610dcf8282610d88565b919050565b600067ffffffffffffffff821115610def57610dee610d59565b5b610df882610d48565b9050602081019050919050565b82818337600083830152505050565b6000610e27610e2284610dd4565b610db9565b905082815260208101848484011115610e4357610e42610d43565b5b610e4e848285610e05565b509392505050565b600082601f830112610e6b57610e6a610d3e565b5b8135610e7b848260208601610e14565b91505092915050565b600080fd5b600080fd5b60008083601f840112610ea457610ea3610d3e565b5b8235905067ffffffffffffffff811115610ec157610ec0610e84565b5b602083019150836001820283011115610edd57610edc610e89565b5b9250929050565b600080600080600060808688031215610f0057610eff610cd6565b5b6000610f0e88828901610d29565b955050602086013567ffffffffffffffff811115610f2f57610f2e610cdb565b5b610f3b88828901610e56565b945050604086013567ffffffffffffffff811115610f5c57610f5b610cdb565b5b610f6888828901610e56565b935050606086013567ffffffffffffffff811115610f8957610f88610cdb565b5b610f9588828901610e8e565b92509250509295509295909350565b600081519050919050565b600082825260208201905092915050565b6000819050602082019050919050565b610fd981610d00565b82525050565b60008115159050919050565b610ff481610fdf565b82525050565b6040820160008201516110106000850182610fd0565b5060208201516110236020850182610feb565b50505050565b60006110358383610ffa565b60408301905092915050565b6000602082019050919050565b600061105982610fa4565b6110638185610faf565b935061106e83610fc0565b8060005b8381101561109f5781516110868882611029565b975061109183611041565b925050600181019050611072565b5085935050505092915050565b600060208201905081810360008301526110c6818461104e565b905092915050565b6000602082840312156110e4576110e3610cd6565b5b60006110f284828501610d29565b91505092915050565b600081519050919050565b600082825260208201905092915050565b6000819050602082019050919050565b600081519050919050565b600082825260208201905092915050565b60005b83811015611161578082015181840152602081019050611146565b60008484015250505050565b600061117882611127565b6111828185611132565b9350611192818560208601611143565b61119b81610d48565b840191505092915050565b600060608301600083015184820360008601526111c3828261116d565b915050602083015184820360208601526111dd828261116d565b915050604083015184820360408601526111f7828261116d565b9150508091505092915050565b600061121083836111a6565b905092915050565b6000602082019050919050565b6000611230826110fb565b61123a8185611106565b93508360208202850161124c85611117565b8060005b8581101561128857848403895281516112698582611204565b945061127483611218565b925060208a01995050600181019050611250565b50829750879550505050505092915050565b600060208201905081810360008301526112b48184611225565b905092915050565b7f4e487b7100000000000000000000000000000000000000000000000000000000600052602260045260246000fd5b6000600282049050600182168061130357607f821691505b602082108103611316576113156112bc565b5b50919050565b60008190508160005260206000209050919050565b60006020601f8301049050919050565b600082821b905092915050565b60006008830261137e7fffffffffffffffffffffffffffffffffffffffffffffffffffffffffffffffff82611341565b6113888683611341565b95508019841693508086168417925050509392505050565b6000819050919050565b6000819050919050565b60006113cf6113ca6113c5846113a0565b6113aa565b6113a0565b9050919050565b6000819050919050565b6113e9836113b4565b6113fd6113f5826113d6565b84845461134e565b825550505050565b600090565b611412611405565b61141d8184846113e0565b505050565b5b818110156114415761143660008261140a565b600181019050611423565b5050565b601f821115611486576114578161131c565b61146084611331565b8101602085101561146f578190505b61148361147b85611331565b830182611422565b50505b505050565b600082821c905092915050565b60006114a96000198460080261148b565b1980831691505092915050565b60006114c28383611498565b9150826002028217905092915050565b6114db82611127565b67ffffffffffffffff8111156114f4576114f3610d59565b5b6114fe82546112eb565b611509828285611445565b600060209050601f83116001811461153c576000841561152a578287015190505b61153485826114b6565b86555061159c565b601f19841661154a8661131c565b60005b828110156115725784890151825560018201915060208501945060208101905061154d565b8683101561158f578489015161158b601f891682611498565b8355505b6001600288020188555050505b505050505050565b7f4e487b7100000000000000000000000000000000000000000000000000000000600052603260045260246000fd5b600082825260208201905092915050565b7f596f7520646f206e6f7420686176652061636365737320746f20746869730000600082015250565b600061161a601e836115d3565b9150611625826115e4565b602082019050919050565b600060208201905081810360008301526116498161160d565b905091905056fea26469706673582212209d5b53193c9c7a0461776093ba8c7f600805394698cd7890cf1031d297ffda8664736f6c634300081c0033",
  "linkReferences": {},
  "deployedLinkReferences": {}
}